{"contracts/ZKMAV.sol":{"ZKMAV":{"abi":[{"anonymous":false,"inputs":[{"indexed":false,"internalType":"bytes32","name":"fileHash","type":"bytes32"},{"indexed":false,"internalType":"bytes32","name":"signature","type":"bytes32"},{"indexed":false,"internalType":"bytes32","name":"ipfsCID","type":"bytes32"},{"indexed":false,"internalType":"uint256","name":"longitude","type":"uint256"},{"indexed":false,"internalType":"uint256","name":"latitude","type":"uint256"}],"name":"Upload","type":"event"},{"inputs":[{"internalType":"bytes32","name":"fileHash","type":"bytes32"},{"internalType":"bytes32","name":"signature","type":"bytes32"},{"internalType":"bytes32","name":"ipfsCID","type":"bytes32"},{"internalType":"uint256","name":"longitude","type":"uint256"},{"internalType":"uint256","name":"latitude","type":"uint256"}],"name":"upload","outputs":[],"stateMutability":"nonpayable","type":"function"},{"inputs":[{"internalType":"bytes32","name":"","type":"bytes32"}],"name":"uploadedData","outputs":[{"internalType":"bytes32","name":"signature","type":"bytes32"},{"internalType":"bytes32","name":"ipfsCID","type":"bytes32"},{"components":[{"internalType":"uint256","name":"longitude","type":"uint256"},{"internalType":"uint256","name":"latitude","type":"uint256"}],"internalType":"struct ZKMAV.Location","name":"location","type":"tuple"}],"stateMutability":"view","type":"function"}],"evm":{"bytecode":{"linkReferences":{},"object":"608060405234801561001057600080fd5b5061049a806100206000396000f3fe608060405234801561001057600080fd5b50600436106100365760003560e01c8063082d7fbb1461003b578063131bee451461006d575b600080fd5b61005560048036038101906100509190610223565b610089565b604051610064939291906102a7565b60405180910390f35b6100876004803603810190610082919061030a565b6100d1565b005b60006020528060005260406000206000915090508060000154908060010154908060020160405180604001604052908160008201548152602001600182015481525050905083565b6000801b600080878152602001908152602001600020600001541461012b576040517f08c379a0000000000000000000000000000000000000000000000000000000008152600401610122906103e2565b60405180910390fd5b7f92b843e20c98562a30d737fc1090c69f36338c944c5f8d1787e08f059b43454f8585858585604051610162959493929190610411565b60405180910390a160405180606001604052808581526020018481526020016040518060400160405280858152602001848152508152506000808781526020019081526020016000206000820151816000015560208201518160010155604082015181600201600082015181600001556020820151816001015550509050505050505050565b600080fd5b6000819050919050565b610200816101ed565b811461020b57600080fd5b50565b60008135905061021d816101f7565b92915050565b600060208284031215610239576102386101e8565b5b60006102478482850161020e565b91505092915050565b610259816101ed565b82525050565b6000819050919050565b6102728161025f565b82525050565b60408201600082015161028e6000850182610269565b5060208201516102a16020850182610269565b50505050565b60006080820190506102bc6000830186610250565b6102c96020830185610250565b6102d66040830184610278565b949350505050565b6102e78161025f565b81146102f257600080fd5b50565b600081359050610304816102de565b92915050565b600080600080600060a08688031215610326576103256101e8565b5b60006103348882890161020e565b95505060206103458882890161020e565b94505060406103568882890161020e565b9350506060610367888289016102f5565b9250506080610378888289016102f5565b9150509295509295909350565b600082825260208201905092915050565b7f46696c652068617320616c7265616479206265656e2075706c6f616465640000600082015250565b60006103cc601e83610385565b91506103d782610396565b602082019050919050565b600060208201905081810360008301526103fb816103bf565b9050919050565b61040b8161025f565b82525050565b600060a0820190506104266000830188610250565b6104336020830187610250565b6104406040830186610250565b61044d6060830185610402565b61045a6080830184610402565b969550505050505056fea264697066735822122068634c8bfca2d53c57b768da656d916e5a94a1121b3ddca9c395650d808ade1764736f6c63430008180033","opcodes":"PUSH1 0x80 PUSH1 0x40 MSTORE CALLVALUE DUP1 ISZERO PUSH2 0x10 JUMPI PUSH1 0x0 DUP1 REVERT JUMPDEST POP PUSH2 0x49A DUP1 PUSH2 0x20 PUSH1 0x0 CODECOPY PUSH1 0x0 RETURN INVALID PUSH1 0x80 PUSH1 0x40 MSTORE CALLVALUE DUP1 ISZERO PUSH2 0x10 JUMPI PUSH1 0x0 DUP1 REVERT JUMPDEST POP PUSH1 0x4 CALLDATASIZE LT PUSH2 0x36 JUMPI PUSH1 0x0 CALLDATALOAD PUSH1 0xE0 SHR DUP1 PUSH4 0x82D7FBB EQ PUSH2 0x3B JUMPI DUP1 PUSH4 0x131BEE45 EQ PUSH2 0x6D JUMPI JUMPDEST PUSH1 0x0 DUP1 REVERT JUMPDEST PUSH2 0x55 PUSH1 0x4 DUP1 CALLDATASIZE SUB DUP2 ADD SWAP1 PUSH2 0x50 SWAP2 SWAP1 PUSH2 0x223 JUMP JUMPDEST PUSH2 0x89 JUMP JUMPDEST PUSH1 0x40 MLOAD PUSH2 0x64 SWAP4 SWAP3 SWAP2 SWAP1 PUSH2 0x2A7 JUMP JUMPDEST PUSH1 0x40 MLOAD DUP1 SWAP2 SUB SWAP1 RETURN JUMPDEST PUSH2 0x87 PUSH1 0x4 DUP1 CALLDATASIZE SUB DUP2 ADD SWAP1 PUSH2 0x82 SWAP2 SWAP1 PUSH2 0x30A JUMP JUMPDEST PUSH2 0xD1 JUMP JUMPDEST STOP JUMPDEST PUSH1 0x0 PUSH1 0x20 MSTORE DUP1 PUSH1 0x0 MSTORE PUSH1 0x40 PUSH1 0x0 KECCAK256 PUSH1 0x0 SWAP2 POP SWAP1 POP DUP1 PUSH1 0x0 ADD SLOAD SWAP1 DUP1 PUSH1 0x1 ADD SLOAD SWAP1 DUP1 PUSH1 0x2 ADD PUSH1 0x40 MLOAD DUP1 PUSH1 0x40 ADD PUSH1 0x40 MSTORE SWAP1 DUP2 PUSH1 0x0 DUP3 ADD SLOAD DUP2 MSTORE PUSH1 0x20 ADD PUSH1 0x1 DUP3 ADD SLOAD DUP2 MSTORE POP POP SWAP1 POP DUP4 JUMP JUMPDEST PUSH1 0x0 DUP1 SHL PUSH1 0x0 DUP1 DUP8 DUP2 MSTORE PUSH1 0x20 ADD SWAP1 DUP2 MSTORE PUSH1 0x20 ADD PUSH1 0x0 KECCAK256 PUSH1 0x0 ADD SLOAD EQ PUSH2 0x12B JUMPI PUSH1 0x40 MLOAD PUSH32 0x8C379A000000000000000000000000000000000000000000000000000000000 DUP2 MSTORE PUSH1 0x4 ADD PUSH2 0x122 SWAP1 PUSH2 0x3E2 JUMP JUMPDEST PUSH1 0x40 MLOAD DUP1 SWAP2 SUB SWAP1 REVERT JUMPDEST PUSH32 0x92B843E20C98562A30D737FC1090C69F36338C944C5F8D1787E08F059B43454F DUP6 DUP6 DUP6 DUP6 DUP6 PUSH1 0x40 MLOAD PUSH2 0x162 SWAP6 SWAP5 SWAP4 SWAP3 SWAP2 SWAP1 PUSH2 0x411 JUMP JUMPDEST PUSH1 0x40 MLOAD DUP1 SWAP2 SUB SWAP1 LOG1 PUSH1 0x40 MLOAD DUP1 PUSH1 0x60 ADD PUSH1 0x40 MSTORE DUP1 DUP6 DUP2 MSTORE PUSH1 0x20 ADD DUP5 DUP2 MSTORE PUSH1 0x20 ADD PUSH1 0x40 MLOAD DUP1 PUSH1 0x40 ADD PUSH1 0x40 MSTORE DUP1 DUP6 DUP2 MSTORE PUSH1 0x20 ADD DUP5 DUP2 MSTORE POP DUP2 MSTORE POP PUSH1 0x0 DUP1 DUP8 DUP2 MSTORE PUSH1 0x20 ADD SWAP1 DUP2 MSTORE PUSH1 0x20 ADD PUSH1 0x0 KECCAK256 PUSH1 0x0 DUP3 ADD MLOAD DUP2 PUSH1 0x0 ADD SSTORE PUSH1 0x20 DUP3 ADD MLOAD DUP2 PUSH1 0x1 ADD SSTORE PUSH1 0x40 DUP3 ADD MLOAD DUP2 PUSH1 0x2 ADD PUSH1 0x0 DUP3 ADD MLOAD DUP2 PUSH1 0x0 ADD SSTORE PUSH1 0x20 DUP3 ADD MLOAD DUP2 PUSH1 0x1 ADD SSTORE POP POP SWAP1 POP POP POP POP POP POP POP JUMP JUMPDEST PUSH1 0x0 DUP1 REVERT JUMPDEST PUSH1 0x0 DUP2 SWAP1 POP SWAP2 SWAP1 POP JUMP JUMPDEST PUSH2 0x200 DUP2 PUSH2 0x1ED JUMP JUMPDEST DUP2 EQ PUSH2 0x20B JUMPI PUSH1 0x0 DUP1 REVERT JUMPDEST POP JUMP JUMPDEST PUSH1 0x0 DUP2 CALLDATALOAD SWAP1 POP PUSH2 0x21D DUP2 PUSH2 0x1F7 JUMP JUMPDEST SWAP3 SWAP2 POP POP JUMP JUMPDEST PUSH1 0x0 PUSH1 0x20 DUP3 DUP5 SUB SLT ISZERO PUSH2 0x239 JUMPI PUSH2 0x238 PUSH2 0x1E8 JUMP JUMPDEST JUMPDEST PUSH1 0x0 PUSH2 0x247 DUP5 DUP3 DUP6 ADD PUSH2 0x20E JUMP JUMPDEST SWAP2 POP POP SWAP3 SWAP2 POP POP JUMP JUMPDEST PUSH2 0x259 DUP2 PUSH2 0x1ED JUMP JUMPDEST DUP3 MSTORE POP POP JUMP JUMPDEST PUSH1 0x0 DUP2 SWAP1 POP SWAP2 SWAP1 POP JUMP JUMPDEST PUSH2 0x272 DUP2 PUSH2 0x25F JUMP JUMPDEST DUP3 MSTORE POP POP JUMP JUMPDEST PUSH1 0x40 DUP3 ADD PUSH1 0x0 DUP3 ADD MLOAD PUSH2 0x28E PUSH1 0x0 DUP6 ADD DUP3 PUSH2 0x269 JUMP JUMPDEST POP PUSH1 0x20 DUP3 ADD MLOAD PUSH2 0x2A1 PUSH1 0x20 DUP6 ADD DUP3 PUSH2 0x269 JUMP JUMPDEST POP POP POP POP JUMP JUMPDEST PUSH1 0x0 PUSH1 0x80 DUP3 ADD SWAP1 POP PUSH2 0x2BC PUSH1 0x0 DUP4 ADD DUP7 PUSH2 0x250 JUMP JUMPDEST PUSH2 0x2C9 PUSH1 0x20 DUP4 ADD DUP6 PUSH2 0x250 JUMP JUMPDEST PUSH2 0x2D6 PUSH1 0x40 DUP4 ADD DUP5 PUSH2 0x278 JUMP JUMPDEST SWAP5 SWAP4 POP POP POP POP JUMP JUMPDEST PUSH2 0x2E7 DUP2 PUSH2 0x25F JUMP JUMPDEST DUP2 EQ PUSH2 0x2F2 JUMPI PUSH1 0x0 DUP1 REVERT JUMPDEST POP JUMP JUMPDEST PUSH1 0x0 DUP2 CALLDATALOAD SWAP1 POP PUSH2 0x304 DUP2 PUSH2 0x2DE JUMP JUMPDEST SWAP3 SWAP2 POP POP JUMP JUMPDEST PUSH1 0x0 DUP1 PUSH1 0x0 DUP1 PUSH1 0x0 PUSH1 0xA0 DUP7 DUP9 SUB SLT ISZERO PUSH2 0x326 JUMPI PUSH2 0x325 PUSH2 0x1E8 JUMP JUMPDEST JUMPDEST PUSH1 0x0 PUSH2 0x334 DUP9 DUP3 DUP10 ADD PUSH2 0x20E JUMP JUMPDEST SWAP6 POP POP PUSH1 0x20 PUSH2 0x345 DUP9 DUP3 DUP10 ADD PUSH2 0x20E JUMP JUMPDEST SWAP5 POP POP PUSH1 0x40 PUSH2 0x356 DUP9 DUP3 DUP10 ADD PUSH2 0x20E JUMP JUMPDEST SWAP4 POP POP PUSH1 0x60 PUSH2 0x367 DUP9 DUP3 DUP10 ADD PUSH2 0x2F5 JUMP JUMPDEST SWAP3 POP POP PUSH1 0x80 PUSH2 0x378 DUP9 DUP3 DUP10 ADD PUSH2 0x2F5 JUMP JUMPDEST SWAP2 POP POP SWAP3 SWAP6 POP SWAP3 SWAP6 SWAP1 SWAP4 POP JUMP JUMPDEST PUSH1 0x0 DUP3 DUP3 MSTORE PUSH1 0x20 DUP3 ADD SWAP1 POP SWAP3 SWAP2 POP POP JUMP JUMPDEST PUSH32 0x46696C652068617320616C7265616479206265656E2075706C6F616465640000 PUSH1 0x0 DUP3 ADD MSTORE POP JUMP JUMPDEST PUSH1 0x0 PUSH2 0x3CC PUSH1 0x1E DUP4 PUSH2 0x385 JUMP JUMPDEST SWAP2 POP PUSH2 0x3D7 DUP3 PUSH2 0x396 JUMP JUMPDEST PUSH1 0x20 DUP3 ADD SWAP1 POP SWAP2 SWAP1 POP JUMP JUMPDEST PUSH1 0x0 PUSH1 0x20 DUP3 ADD SWAP1 POP DUP2 DUP2 SUB PUSH1 0x0 DUP4 ADD MSTORE PUSH2 0x3FB DUP2 PUSH2 0x3BF JUMP JUMPDEST SWAP1 POP SWAP2 SWAP1 POP JUMP JUMPDEST PUSH2 0x40B DUP2 PUSH2 0x25F JUMP JUMPDEST DUP3 MSTORE POP POP JUMP JUMPDEST PUSH1 0x0 PUSH1 0xA0 DUP3 ADD SWAP1 POP PUSH2 0x426 PUSH1 0x0 DUP4 ADD DUP9 PUSH2 0x250 JUMP JUMPDEST PUSH2 0x433 PUSH1 0x20 DUP4 ADD DUP8 PUSH2 0x250 JUMP JUMPDEST PUSH2 0x440 PUSH1 0x40 DUP4 ADD DUP7 PUSH2 0x250 JUMP JUMPDEST PUSH2 0x44D PUSH1 0x60 DUP4 ADD DUP6 PUSH2 0x402 JUMP JUMPDEST PUSH2 0x45A PUSH1 0x80 DUP4 ADD DUP5 PUSH2 0x402 JUMP JUMPDEST SWAP7 SWAP6 POP POP POP POP POP POP JUMP INVALID LOG2 PUSH5 0x6970667358 0x22 SLT KECCAK256 PUSH9 0x634C8BFCA2D53C57B7 PUSH9 0xDA656D916E5A94A112 SHL RETURNDATASIZE 0xDC 0xA9 0xC3 SWAP6 PUSH6 0xD808ADE1764 PUSH20 0x6F6C634300081800330000000000000000000000 "},"methodIdentifiers":{"upload(bytes32,bytes32,bytes32,uint256,uint256)":"131bee45","uploadedData(bytes32)":"082d7fbb"}}}}}