{
  "_format": "hh-sol-artifact-1",
  "contractName": "ZKMAV",
  "sourceName": "contracts/ZKMAV.sol",
  "abi": [
    {
      "anonymous": false,
      "inputs": [
        {
          "indexed": false,
          "internalType": "bytes32",
          "name": "fileHash",
          "type": "bytes32"
        },
        {
          "indexed": false,
          "internalType": "bytes32",
          "name": "signature",
          "type": "bytes32"
        },
        {
          "indexed": false,
          "internalType": "bytes32",
          "name": "ipfsCID",
          "type": "bytes32"
        },
        {
          "indexed": false,
          "internalType": "uint256",
          "name": "longitude",
          "type": "uint256"
        },
        {
          "indexed": false,
          "internalType": "uint256",
          "name": "latitude",
          "type": "uint256"
        }
      ],
      "name": "Upload",
      "type": "event"
    },
    {
      "inputs": [
        {
          "internalType": "bytes32",
          "name": "fileHash",
          "type": "bytes32"
        },
        {
          "internalType": "bytes32",
          "name": "signature",
          "type": "bytes32"
        },
        {
          "internalType": "bytes32",
          "name": "ipfsCID",
          "type": "bytes32"
        },
        {
          "internalType": "uint256",
          "name": "longitude",
          "type": "uint256"
        },
        {
          "internalType": "uint256",
          "name": "latitude",
          "type": "uint256"
        }
      ],
      "name": "upload",
      "outputs": [],
      "stateMutability": "nonpayable",
      "type": "function"
    },
    {
      "inputs": [
        {
          "internalType": "bytes32",
          "name": "",
          "type": "bytes32"
        }
      ],
      "name": "uploadedData",
      "outputs": [
        {
          "internalType": "bytes32",
          "name": "signature",
          "type": "bytes32"
        },
        {
          "internalType": "bytes32",
          "name": "ipfsCID",
          "type": "bytes32"
        },
        {
          "components": [
            {
              "internalType": "uint256",
              "name": "longitude",
              "type": "uint256"
            },
            {
              "internalType": "uint256",
              "name": "latitude",
              "type": "uint256"
            }
          ],
          "internalType": "struct ZKMAV.Location",
          "name": "location",
          "type": "tuple"
        }
      ],
      "stateMutability": "view",
      "type": "function"
    }
  ],
  "bytecode": "0x608060405234801561001057600080fd5b5061049a806100206000396000f3fe608060405234801561001057600080fd5b50600436106100365760003560e01c8063082d7fbb1461003b578063131bee451461006d575b600080fd5b61005560048036038101906100509190610223565b610089565b604051610064939291906102a7565b60405180910390f35b6100876004803603810190610082919061030a565b6100d1565b005b60006020528060005260406000206000915090508060000154908060010154908060020160405180604001604052908160008201548152602001600182015481525050905083565b6000801b600080878152602001908152602001600020600001541461012b576040517f08c379a0000000000000000000000000000000000000000000000000000000008152600401610122906103e2565b60405180910390fd5b7f92b843e20c98562a30d737fc1090c69f36338c944c5f8d1787e08f059b43454f8585858585604051610162959493929190610411565b60405180910390a160405180606001604052808581526020018481526020016040518060400160405280858152602001848152508152506000808781526020019081526020016000206000820151816000015560208201518160010155604082015181600201600082015181600001556020820151816001015550509050505050505050565b600080fd5b6000819050919050565b610200816101ed565b811461020b57600080fd5b50565b60008135905061021d816101f7565b92915050565b600060208284031215610239576102386101e8565b5b60006102478482850161020e565b91505092915050565b610259816101ed565b82525050565b6000819050919050565b6102728161025f565b82525050565b60408201600082015161028e6000850182610269565b5060208201516102a16020850182610269565b50505050565b60006080820190506102bc6000830186610250565b6102c96020830185610250565b6102d66040830184610278565b949350505050565b6102e78161025f565b81146102f257600080fd5b50565b600081359050610304816102de565b92915050565b600080600080600060a08688031215610326576103256101e8565b5b60006103348882890161020e565b95505060206103458882890161020e565b94505060406103568882890161020e565b9350506060610367888289016102f5565b9250506080610378888289016102f5565b9150509295509295909350565b600082825260208201905092915050565b7f46696c652068617320616c7265616479206265656e2075706c6f616465640000600082015250565b60006103cc601e83610385565b91506103d782610396565b602082019050919050565b600060208201905081810360008301526103fb816103bf565b9050919050565b61040b8161025f565b82525050565b600060a0820190506104266000830188610250565b6104336020830187610250565b6104406040830186610250565b61044d6060830185610402565b61045a6080830184610402565b969550505050505056fea264697066735822122068634c8bfca2d53c57b768da656d916e5a94a1121b3ddca9c395650d808ade1764736f6c63430008180033",
  "linkReferences": {},
  "deployedLinkReferences": {}
}